{
  "contractName": "Dex",
  "abi": [
    {
      "anonymous": false,
      "inputs": [
        {
          "indexed": true,
          "internalType": "address",
          "name": "previousOwner",
          "type": "address"
        },
        {
          "indexed": true,
          "internalType": "address",
          "name": "newOwner",
          "type": "address"
        }
      ],
      "name": "OwnershipTransferred",
      "type": "event"
    },
    {
      "inputs": [
        {
          "internalType": "bytes32",
          "name": "ticker",
          "type": "bytes32"
        },
        {
          "internalType": "address",
          "name": "tokenAddress",
          "type": "address"
        }
      ],
      "name": "addToken",
      "outputs": [],
      "stateMutability": "nonpayable",
      "type": "function"
    },
    {
      "inputs": [
        {
          "internalType": "address",
          "name": "",
          "type": "address"
        },
        {
          "internalType": "bytes32",
          "name": "",
          "type": "bytes32"
        }
      ],
      "name": "balances",
      "outputs": [
        {
          "internalType": "uint256",
          "name": "",
          "type": "uint256"
        }
      ],
      "stateMutability": "view",
      "type": "function"
    },
    {
      "inputs": [
        {
          "internalType": "uint256",
          "name": "amount",
          "type": "uint256"
        },
        {
          "internalType": "bytes32",
          "name": "ticker",
          "type": "bytes32"
        }
      ],
      "name": "deposit",
      "outputs": [],
      "stateMutability": "nonpayable",
      "type": "function"
    },
    {
      "inputs": [
        {
          "internalType": "bytes32",
          "name": "",
          "type": "bytes32"
        },
        {
          "internalType": "uint256",
          "name": "",
          "type": "uint256"
        },
        {
          "internalType": "uint256",
          "name": "",
          "type": "uint256"
        }
      ],
      "name": "orderBook",
      "outputs": [
        {
          "internalType": "uint256",
          "name": "id",
          "type": "uint256"
        },
        {
          "internalType": "address",
          "name": "Trader",
          "type": "address"
        },
        {
          "internalType": "bool",
          "name": "buyOrder",
          "type": "bool"
        },
        {
          "internalType": "bytes32",
          "name": "ticker",
          "type": "bytes32"
        },
        {
          "internalType": "uint256",
          "name": "amount",
          "type": "uint256"
        },
        {
          "internalType": "uint256",
          "name": "price",
          "type": "uint256"
        }
      ],
      "stateMutability": "view",
      "type": "function"
    },
    {
      "inputs": [],
      "name": "owner",
      "outputs": [
        {
          "internalType": "address",
          "name": "",
          "type": "address"
        }
      ],
      "stateMutability": "view",
      "type": "function"
    },
    {
      "inputs": [],
      "name": "renounceOwnership",
      "outputs": [],
      "stateMutability": "nonpayable",
      "type": "function"
    },
    {
      "inputs": [
        {
          "internalType": "uint256",
          "name": "",
          "type": "uint256"
        }
      ],
      "name": "tokenList",
      "outputs": [
        {
          "internalType": "bytes32",
          "name": "",
          "type": "bytes32"
        }
      ],
      "stateMutability": "view",
      "type": "function"
    },
    {
      "inputs": [
        {
          "internalType": "bytes32",
          "name": "",
          "type": "bytes32"
        }
      ],
      "name": "tokenMapping",
      "outputs": [
        {
          "internalType": "bytes32",
          "name": "ticker",
          "type": "bytes32"
        },
        {
          "internalType": "address",
          "name": "tokenAddress",
          "type": "address"
        }
      ],
      "stateMutability": "view",
      "type": "function"
    },
    {
      "inputs": [
        {
          "internalType": "address",
          "name": "newOwner",
          "type": "address"
        }
      ],
      "name": "transferOwnership",
      "outputs": [],
      "stateMutability": "nonpayable",
      "type": "function"
    },
    {
      "inputs": [
        {
          "internalType": "uint256",
          "name": "amount",
          "type": "uint256"
        },
        {
          "internalType": "bytes32",
          "name": "ticker",
          "type": "bytes32"
        }
      ],
      "name": "withdraw",
      "outputs": [],
      "stateMutability": "nonpayable",
      "type": "function"
    },
    {
      "inputs": [
        {
          "internalType": "bytes32",
          "name": "ticker",
          "type": "bytes32"
        },
        {
          "internalType": "enum Dex.Side",
          "name": "side",
          "type": "uint8"
        }
      ],
      "name": "getOrderBook",
      "outputs": [
        {
          "components": [
            {
              "internalType": "uint256",
              "name": "id",
              "type": "uint256"
            },
            {
              "internalType": "address",
              "name": "Trader",
              "type": "address"
            },
            {
              "internalType": "bool",
              "name": "buyOrder",
              "type": "bool"
            },
            {
              "internalType": "bytes32",
              "name": "ticker",
              "type": "bytes32"
            },
            {
              "internalType": "uint256",
              "name": "amount",
              "type": "uint256"
            },
            {
              "internalType": "uint256",
              "name": "price",
              "type": "uint256"
            }
          ],
          "internalType": "struct Dex.Order[]",
          "name": "",
          "type": "tuple[]"
        }
      ],
      "stateMutability": "view",
      "type": "function"
    }
  ],
  "bytecode": "0x608060405234801561000f575f80fd5b5061002c61002161003160201b60201c565b61003860201b60201c565b6100f9565b5f33905090565b5f805f9054906101000a900473ffffffffffffffffffffffffffffffffffffffff169050815f806101000a81548173ffffffffffffffffffffffffffffffffffffffff021916908373ffffffffffffffffffffffffffffffffffffffff1602179055508173ffffffffffffffffffffffffffffffffffffffff168173ffffffffffffffffffffffffffffffffffffffff167f8be0079c531659141344cd1fd0a4f28419497f9722a3daafe3b4186f6b6457e060405160405180910390a35050565b6114ba806101065f395ff3fe608060405234801561000f575f80fd5b50600436106100a7575f3560e01c80639776aacf1161006f5780639776aacf146101695780639ead722214610185578063a8d2021a146101b5578063ba58ea68146101d1578063c9630cb014610201578063f2fde38b1461021d576100a7565b80630bb431b6146100ab5780631f14df69146100e0578063667cb4ba14610110578063715018a6146101415780638da5cb5b1461014b575b5f80fd5b6100c560048036038101906100c09190610c62565b610239565b6040516100d796959493929190610d29565b60405180910390f35b6100fa60048036038101906100f59190610db2565b6102c2565b6040516101079190610df0565b60405180910390f35b61012a60048036038101906101259190610e09565b6102e2565b604051610138929190610e34565b60405180910390f35b610149610321565b005b610153610334565b6040516101609190610e5b565b60405180910390f35b610183600480360381019061017e9190610e74565b61035b565b005b61019f600480360381019061019a9190610eb2565b61041a565b6040516101ac9190610edd565b60405180910390f35b6101cf60048036038101906101ca9190610ef6565b61043a565b005b6101eb60048036038101906101e69190610f57565b6106ce565b6040516101f891906110f2565b60405180910390f35b61021b60048036038101906102169190610ef6565b6107f4565b005b61023760048036038101906102329190611112565b610a06565b005b6004602052825f5260405f20602052815f5260405f20818154811061025c575f80fd5b905f5260205f2090600502015f925092505050805f015490806001015f9054906101000a900473ffffffffffffffffffffffffffffffffffffffff16908060010160149054906101000a900460ff16908060020154908060030154908060040154905086565b6003602052815f5260405f20602052805f5260405f205f91509150505481565b6001602052805f5260405f205f91509050805f015490806001015f9054906101000a900473ffffffffffffffffffffffffffffffffffffffff16905082565b610329610a88565b6103325f610b06565b565b5f805f9054906101000a900473ffffffffffffffffffffffffffffffffffffffff16905090565b610363610a88565b60405180604001604052808381526020018273ffffffffffffffffffffffffffffffffffffffff1681525060015f8481526020019081526020015f205f820151815f01556020820151816001015f6101000a81548173ffffffffffffffffffffffffffffffffffffffff021916908373ffffffffffffffffffffffffffffffffffffffff160217905550905050600282908060018154018082558091505060019003905f5260205f20015f90919091909150555050565b60028181548110610429575f80fd5b905f5260205f20015f915090505481565b805f73ffffffffffffffffffffffffffffffffffffffff1660015f8381526020019081526020015f206001015f9054906101000a900473ffffffffffffffffffffffffffffffffffffffff1673ffffffffffffffffffffffffffffffffffffffff16036104dc576040517f08c379a00000000000000000000000000000000000000000000000000000000081526004016104d390611197565b60405180910390fd5b8260035f3373ffffffffffffffffffffffffffffffffffffffff1673ffffffffffffffffffffffffffffffffffffffff1681526020019081526020015f205f8481526020019081526020015f2054101561056b576040517f08c379a0000000000000000000000000000000000000000000000000000000008152600401610562906111ff565b60405180910390fd5b6105ca8360035f3373ffffffffffffffffffffffffffffffffffffffff1673ffffffffffffffffffffffffffffffffffffffff1681526020019081526020015f205f8581526020019081526020015f2054610bc790919063ffffffff16565b60035f3373ffffffffffffffffffffffffffffffffffffffff1673ffffffffffffffffffffffffffffffffffffffff1681526020019081526020015f205f8481526020019081526020015f208190555060015f8381526020019081526020015f206001015f9054906101000a900473ffffffffffffffffffffffffffffffffffffffff1673ffffffffffffffffffffffffffffffffffffffff1663a9059cbb33856040518363ffffffff1660e01b815260040161068892919061121d565b6020604051808303815f875af11580156106a4573d5f803e3d5ffd5b505050506040513d601f19601f820116820180604052508101906106c8919061126e565b50505050565b606060045f8481526020019081526020015f205f8360018111156106f5576106f4611299565b5b81526020019081526020015f20805480602002602001604051908101604052809291908181526020015f905b828210156107e8578382905f5260205f2090600502016040518060c00160405290815f8201548152602001600182015f9054906101000a900473ffffffffffffffffffffffffffffffffffffffff1673ffffffffffffffffffffffffffffffffffffffff1673ffffffffffffffffffffffffffffffffffffffff1681526020016001820160149054906101000a900460ff16151515158152602001600282015481526020016003820154815260200160048201548152505081526020019060010190610721565b50505050905092915050565b805f73ffffffffffffffffffffffffffffffffffffffff1660015f8381526020019081526020015f206001015f9054906101000a900473ffffffffffffffffffffffffffffffffffffffff1673ffffffffffffffffffffffffffffffffffffffff1603610896576040517f08c379a000000000000000000000000000000000000000000000000000000000815260040161088d90611197565b60405180910390fd5b5f83116108a1575f80fd5b60015f8381526020019081526020015f206001015f9054906101000a900473ffffffffffffffffffffffffffffffffffffffff1673ffffffffffffffffffffffffffffffffffffffff166323b872dd3330866040518463ffffffff1660e01b8152600401610911939291906112c6565b6020604051808303815f875af115801561092d573d5f803e3d5ffd5b505050506040513d601f19601f82011682018060405250810190610951919061126e565b506109b18360035f3373ffffffffffffffffffffffffffffffffffffffff1673ffffffffffffffffffffffffffffffffffffffff1681526020019081526020015f205f8581526020019081526020015f2054610bdc90919063ffffffff16565b60035f3373ffffffffffffffffffffffffffffffffffffffff1673ffffffffffffffffffffffffffffffffffffffff1681526020019081526020015f205f8481526020019081526020015f2081905550505050565b610a0e610a88565b5f73ffffffffffffffffffffffffffffffffffffffff168173ffffffffffffffffffffffffffffffffffffffff1603610a7c576040517f08c379a0000000000000000000000000000000000000000000000000000000008152600401610a739061136b565b60405180910390fd5b610a8581610b06565b50565b610a90610bf1565b73ffffffffffffffffffffffffffffffffffffffff16610aae610334565b73ffffffffffffffffffffffffffffffffffffffff1614610b04576040517f08c379a0000000000000000000000000000000000000000000000000000000008152600401610afb906113d3565b60405180910390fd5b565b5f805f9054906101000a900473ffffffffffffffffffffffffffffffffffffffff169050815f806101000a81548173ffffffffffffffffffffffffffffffffffffffff021916908373ffffffffffffffffffffffffffffffffffffffff1602179055508173ffffffffffffffffffffffffffffffffffffffff168173ffffffffffffffffffffffffffffffffffffffff167f8be0079c531659141344cd1fd0a4f28419497f9722a3daafe3b4186f6b6457e060405160405180910390a35050565b5f8183610bd4919061141e565b905092915050565b5f8183610be99190611451565b905092915050565b5f33905090565b5f80fd5b5f819050919050565b610c0e81610bfc565b8114610c18575f80fd5b50565b5f81359050610c2981610c05565b92915050565b5f819050919050565b610c4181610c2f565b8114610c4b575f80fd5b50565b5f81359050610c5c81610c38565b92915050565b5f805f60608486031215610c7957610c78610bf8565b5b5f610c8686828701610c1b565b9350506020610c9786828701610c4e565b9250506040610ca886828701610c4e565b9150509250925092565b610cbb81610c2f565b82525050565b5f73ffffffffffffffffffffffffffffffffffffffff82169050919050565b5f610cea82610cc1565b9050919050565b610cfa81610ce0565b82525050565b5f8115159050919050565b610d1481610d00565b82525050565b610d2381610bfc565b82525050565b5f60c082019050610d3c5f830189610cb2565b610d496020830188610cf1565b610d566040830187610d0b565b610d636060830186610d1a565b610d706080830185610cb2565b610d7d60a0830184610cb2565b979650505050505050565b610d9181610ce0565b8114610d9b575f80fd5b50565b5f81359050610dac81610d88565b92915050565b5f8060408385031215610dc857610dc7610bf8565b5b5f610dd585828601610d9e565b9250506020610de685828601610c1b565b9150509250929050565b5f602082019050610e035f830184610cb2565b92915050565b5f60208284031215610e1e57610e1d610bf8565b5b5f610e2b84828501610c1b565b91505092915050565b5f604082019050610e475f830185610d1a565b610e546020830184610cf1565b9392505050565b5f602082019050610e6e5f830184610cf1565b92915050565b5f8060408385031215610e8a57610e89610bf8565b5b5f610e9785828601610c1b565b9250506020610ea885828601610d9e565b9150509250929050565b5f60208284031215610ec757610ec6610bf8565b5b5f610ed484828501610c4e565b91505092915050565b5f602082019050610ef05f830184610d1a565b92915050565b5f8060408385031215610f0c57610f0b610bf8565b5b5f610f1985828601610c4e565b9250506020610f2a85828601610c1b565b9150509250929050565b60028110610f40575f80fd5b50565b5f81359050610f5181610f34565b92915050565b5f8060408385031215610f6d57610f6c610bf8565b5b5f610f7a85828601610c1b565b9250506020610f8b85828601610f43565b9150509250929050565b5f81519050919050565b5f82825260208201905092915050565b5f819050602082019050919050565b610fc781610c2f565b82525050565b610fd681610ce0565b82525050565b610fe581610d00565b82525050565b610ff481610bfc565b82525050565b60c082015f82015161100e5f850182610fbe565b5060208201516110216020850182610fcd565b5060408201516110346040850182610fdc565b5060608201516110476060850182610feb565b50608082015161105a6080850182610fbe565b5060a082015161106d60a0850182610fbe565b50505050565b5f61107e8383610ffa565b60c08301905092915050565b5f602082019050919050565b5f6110a082610f95565b6110aa8185610f9f565b93506110b583610faf565b805f5b838110156110e55781516110cc8882611073565b97506110d78361108a565b9250506001810190506110b8565b5085935050505092915050565b5f6020820190508181035f83015261110a8184611096565b905092915050565b5f6020828403121561112757611126610bf8565b5b5f61113484828501610d9e565b91505092915050565b5f82825260208201905092915050565b7f546f6b656e20646f6573206e6f742065786973740000000000000000000000005f82015250565b5f61118160148361113d565b915061118c8261114d565b602082019050919050565b5f6020820190508181035f8301526111ae81611175565b9050919050565b7f42616c616e6365206e6f742073756666696369656e74000000000000000000005f82015250565b5f6111e960168361113d565b91506111f4826111b5565b602082019050919050565b5f6020820190508181035f830152611216816111dd565b9050919050565b5f6040820190506112305f830185610cf1565b61123d6020830184610cb2565b9392505050565b61124d81610d00565b8114611257575f80fd5b50565b5f8151905061126881611244565b92915050565b5f6020828403121561128357611282610bf8565b5b5f6112908482850161125a565b91505092915050565b7f4e487b71000000000000000000000000000000000000000000000000000000005f52602160045260245ffd5b5f6060820190506112d95f830186610cf1565b6112e66020830185610cf1565b6112f36040830184610cb2565b949350505050565b7f4f776e61626c653a206e6577206f776e657220697320746865207a65726f20615f8201527f6464726573730000000000000000000000000000000000000000000000000000602082015250565b5f61135560268361113d565b9150611360826112fb565b604082019050919050565b5f6020820190508181035f83015261138281611349565b9050919050565b7f4f776e61626c653a2063616c6c6572206973206e6f7420746865206f776e65725f82015250565b5f6113bd60208361113d565b91506113c882611389565b602082019050919050565b5f6020820190508181035f8301526113ea816113b1565b9050919050565b7f4e487b71000000000000000000000000000000000000000000000000000000005f52601160045260245ffd5b5f61142882610c2f565b915061143383610c2f565b925082820390508181111561144b5761144a6113f1565b5b92915050565b5f61145b82610c2f565b915061146683610c2f565b925082820190508082111561147e5761147d6113f1565b5b9291505056fea2646970667358221220d33ad7c928840cedacecf15a3a7fd07ef248d6c60b6532f116d525e4ff78d9e064736f6c63430008140033",
  "immutableReferences": {},
  "source": "pragma solidity ^0.8.0;\npragma experimental ABIEncoderV2;\n\nimport \"./wallet.sol\";\n\ncontract Dex is wallet{\n   \n   enum Side{\n    BUY,\n    SELL\n   }\n\n   struct Order {\n    uint id;\n    address Trader; \n    bool buyOrder;\n    bytes32 ticker;\n    uint amount;\n    uint price;\n   }\n\n   mapping(bytes32 => mapping(uint => Order[])) public orderBook;\n\n   function getOrderBook(bytes32 ticker, Side side) view public returns (Order [] memory){\n       return orderBook[ticker][uint(side)];\n   }\n   \n  \n   \n\n}",
  "sourcePath": "/home/atabs/Documents/Moralis Solidity/truffle/Dex/contracts/ Dex.sol",
  "compiler": {
    "name": "solc",
    "version": "0.8.20+commit.a1b79de6.Emscripten.clang"
  },
  "schemaVersion": "3.4.14",
  "updatedAt": "2023-07-07T12:31:06.700Z",
  "devdoc": {
    "kind": "dev",
    "methods": {
      "owner()": {
        "details": "Returns the address of the current owner."
      },
      "renounceOwnership()": {
        "details": "Leaves the contract without owner. It will not be possible to call `onlyOwner` functions. Can only be called by the current owner. NOTE: Renouncing ownership will leave the contract without an owner, thereby disabling any functionality that is only available to the owner."
      },
      "transferOwnership(address)": {
        "details": "Transfers ownership of the contract to a new account (`newOwner`). Can only be called by the current owner."
      }
    },
    "version": 1
  },
  "userdoc": {
    "kind": "user",
    "methods": {},
    "version": 1
  }
}